:0820000047432B320FEF10F0F3
:04200C00C7EF18F012
:10201C00FF003AEF16F00000010E0001AF6F000E4A
:10202C00846F91EC18F06F0028FFB0F06F002CFF5C
:10203C00B1F06F0030FFB2F056EC18F00001CB0598
:10204C00D8A405D0180E3A016013E70E6117C3C06F
:10205C0025F0C4C026F0C5C027F00001C25104EC25
:10206C0013F01AEC18F050EC17F03AEC19F00001E0
:10207C00B0AFB0BD06D0B0B904D095EC17F0A2EC5F
:10208C0019F058EC15F0800ED26E6F0028FFB0F0EE
:10209C006F002CFFB1F06F0030FFB2F00001B0AF59
:1020AC00B0BD01D0B2B30400EAEC11F0600E256EA5
:1020BC001EEC19F00001AE6FAE51D8A453D1E5D788
:1020CC00090E856F000E866F030E876F850E2B6EC3
:1020DC00030E2C6EA4EC16F0D8D7CA511AEC1AF0D9
:1020EC000ED0EAEC19F00BD028EC1AF008D06251A3
:1020FC00010AD8B4F2D7030AD8B4F3D7F5D7CBC0BA
:10210C0025F00001615194EC14F02B6E080E2C6E2E
:10211C00A4EC16F0BAD7000E856F800E866F800E79
:10212C00876F800E886F800E896F800E8A6F000E0D
:10213C008B6F000E8C6F000E8D6F000E8E6F850EE8
:10214C002B6E0A0E2C6EA4EC16F09FD7470E61195D
:10215C00D8A412D0430E6219D8A40ED02B0E63193A
:10216C00D8A40AD0320E6419D8A406D0050EAE1924
:10217C00D8A402D0000E01D0010EAF6F000E0001EA
:10218C00856F850E2B6E010E2C6EA4EC16F07DD790
:10219C00AF51D8A411D0020E856F140E866F000EAD
:1021AC00876F100E886F000E896F850E2B6E050ED3
:1021BC002C6EA4EC16F069D78569E3D7AF51D8A47F
:1021CC00FBD7030EAE651DD062C0ACF0AD6BAC514D
:1021DC00AD6FAC6B6151AC13030EB36F0DD0B3513B
:1021EC00600FD96EDA6ADF50256EAC51B4EC19F081
:1021FC000001AC4BAD2BB32BAE51B35DD8B0BED7F9
:10220C00EED7FE0EBDD7AF51D8A4D6D7040EAE195B
:10221C00D8A4F7D762C0ACF0AD6BAC51AD6FAC6B62
:10222C006151AC1363C0ABF0AB51D8B4EAD7000E1C
:10223C00856F000EB36F10D0B3C048F0010E482666
:10224C004850850FD96EDA6AAC51F5EC19F0DF6E97
:10225C000001AC4BAD2BB32BAB51B35DD8B003D05D
:10226C001F0EB365E9D7850E2B6EAB292C6EA4EC33
:10227C0016F00BD7FF0009D7AF51D8A49DD7000E8D
:10228C00856F850E2B6E010E2C6EA4EC16F0FCECFB
:10229C0018F0FBD6AF51D8A48FD7100EAE19D8A416
:1022AC00B0D7610E256ED8EC19F068D7AF51D8A411
:1022BC0083D7100EAE19D8A4A4D7610E256EC6EC28
:1022CC0019F05CD7AF51D8A477D78FEC19F0000177
:1022DC00A96F000E856F000EB36F0E0EB36501D0A3
:1022EC0011D0A951B325D96EDA6AB3C048F0010EEA
:1022FC0048264850850FE16EE26A6F007FFFE7FFCA
:10230C00B32BEBD7850E2B6E100E2C6EA4EC16F0A7
:10231C00BCD6AF51D8A450D77CEC19F00001AA6FF1
:10232C00000E856F000EB36F0E0EB36501D0EAD7A9
:10233C00AA51B325D96EDA6AB3C048F0010E48260B
:10234C004850850FE16EE26A6F007FFFE7FFB32B09
:10235C00EBD7AF51D8A430D758EC15F00FD708EC09
:10236C001AF093D66051000AD8B4AAD6100AD8B481
:10237C00EDD6010AD8B40CD7030AD8B41FD7010A7A
:10238C00D8B441D7070AD8B475D7010AD8B474D7D2
:10239C00030AD8B47FD7010AD8B488D70F0AD8B4A7
:1023AC0091D7010AD8B4B5D7390AD8B4D2D7600AB4
:1023BC00D8B49DD6010AD8B4AED6030AD8B4ABD6DD
:1023CC00BD0AD8B47DD6CBD76F0028FF25F06F009F
:1023DC002CFF26F06F0030FF27F014502518296EC3
:1023EC00155026182A6E165027182B6E25C014F07F
:1023FC0026C015F027C016F029A802D0000E016ED9
:10240C0029AA02D0000E026E29AE02D0000E036E75
:10241C0029AC02D0000E046E2BA202D0000E056E69
:10242C002AA202D0000E066E2AA002D0000E076E61
:10243C002BAE02D0000E086E2BAC02D0000E096E33
:10244C002BA002D0000E0A6E2BA402D0000E0B6E35
:10245C002BAA02D0000E0C6E2BA802D0000E0D6E13
:10246C002BA602D0000E0E6E2AAA02D0000E0F6E02
:10247C003901A3AF1200A39F000E286E2850010F44
:10248C00D96EDA6ADF2A282A0E0E2864F7D7000ED6
:10249C00106E800E116E090E016409D014B807D0AD
:1024AC000A0E016E0001DF511012D0511112090EEB
:1024BC00026409D014BA07D00A0E026E0001E05172
:1024CC001012D1511112090E036409D014BE07D099
:1024DC000A0E036E0001E1511012D2511112090EB5
:1024EC00046409D014BC07D00A0E046E0001E2513A
:1024FC001012D3511112090E056409D016B207D06F
:10250C000A0E056E0001E3511012D4511112090E7E
:10251C00066409D015B207D00A0E066E0001E4510C
:10252C001012D5511112090E076409D015B007D03D
:10253C000A0E076E0001E5511012D6511112090E48
:10254C00086409D016BE07D00A0E086E0001E651C9
:10255C001012D7511112090E096409D016BC07D0FC
:10256C000A0E096E0001E7511012D8511112090E12
:10257C000A6409D016B007D00A0E0A6E0001E851A1
:10258C001012D9511112090E0B6409D016B407D0D0
:10259C000A0E0B6E0001E9511012DA511112090EDC
:1025AC000C6409D016BA07D00A0E0C6E0001EA5161
:1025BC001012DB511112090E0F6409D015BA07D095
:1025CC000A0E0F6E0001ED511012DE511112090EA0
:1025DC000D6408D00A0E0D6E16A803D0000E126EF4
:1025EC0001D01268090E0E6412000A0E0E6E16A6A9
:1025FC0003D0000E136E1200136812002D6E800EA5
:10260C003E01F86F000EF96F030EFA6FFA518F0B43
:10261C006009FA6F070EFB6F3F0EFF6F000EFD6F28
:10262C00F369040EEC6F1D0EFE6FD78FD7A1FED78A
:10263C002DC04FF025C050F026C051F027C052F0ED
:10264C003901A197000E2E6E2E504F0FD96EDA6AFB
:10265C00DF503E01F16F3901A1A7FDD7A1972E5094
:10266C00490FD96EDA6A6F009BFBDFFF2E2A050E2D
:10267C002E64EAD73901550EEF6FAA0EEF6FEF817A
:10268C004F0E286E28C029F02A6A2B6A2C6A110E6C
:10269C0005D0D8902C322B322A322932E82EF9D799
:1026AC0029503B01FB6F4F0E286E28C029F02A6A77
:1026BC002B6A2C6A2AC029F02BC02AF02CC02BF0D4
:1026CC002C6A2950FA6F4F0EF96FF10E286E3E0EE0
:1026DC00296E2A6A2B6A29C028F02AC029F02BC03F
:1026EC002AF02B6A2850F16FF10EF06F000EF86F84
:1026FC00060EF76F000EEF6F010EEE6F2A0EFF6FD6
:10270C003F0EFD17FD9BE70EFD17FD51F90B02095E
:10271C00FD6FFD91C00EFC6F000EDB6FE60E286E98
:10272C003E0E296E2A6A2B6A29C028F02AC029F08D
:10273C002BC02AF02B6A2850DA6FE60ED96F490E9F
:10274C00286E28C029F02A6A2B6A2C6A2AC029F024
:10275C002BC02AF02CC02BF02C6A2950D16F490EBB
:10276C00D06F000ED86F010ED76F000ECF6F060E14
:10277C00CE6F0B0EDF6FDD513F0B4009DD6FDD9B24
:10278C00E70EDD17F90EDD17DD91C00EDC6FFC8B4B
:10279C0012003550365C2B6E2C6AD8A02C06000E1D
:1027AC002E6E020E2D6ED8EC17F02BC040F02CC004
:1027BC0041F0000E456E000E446E3750445C466E80
:1027CC004550D8A04504476E3A50D8B404D0466C56
:1027DC00471ED8B0472A47AE0DD046C03BF047C085
:1027EC003CF03B1E3C1E3B4A3C2A3BC03EF03CC0EE
:1027FC003FF004D046C03EF047C03FF038503B6E2F
:10280C003C6A3B503E5C3F50800A3D6E3C50800A17
:10281C003D58D8B009D044503324D96E455034209B
:10282C00DA6E800EDF6E72D03950D8A415D046C047
:10283C0025F047C026F0000E286E7F0E276E54EC54
:10284C0019F025C02BF026C02CF040C02DF041C053
:10285C002EF0D8EC17F03BD047BE20D0475003E108
:10286C004604D8A01BD03850465C256E4750D8A0E3
:10287C004704266E000E286E7F0E276E54EC19F05E
:10288C0025C02BF026C02CF03850405C2D6E4150EA
:10289C00D8A041042E6ED8EC17F019D0385046242D
:1028AC00256E000E4720266E000E286E7F0E276EBA
:1028BC0054EC19F025C02BF026C02CF03850405C9D
:1028CC002D6E4150D8A041042E6ED8EC17F02BC0C1
:1028DC0042F02CC043F0800E4226000E432243AE41
:1028EC0004D0000E436E000E426E43BE06D043046D
:1028FC00D8A003D0000E436E426844503324D96EE6
:10290C0045503420DA6E60000BF1DFFF444A452A53
:10291C0045BE53D74504D8B012004FD7286E10C00F
:10292C001DF011C01EF0000E4924D96EDA6A040E97
:10293C00DA22DF501F6E000E4A24D96EDA6A050EB9
:10294C00DA22DF50206E2550D8A405D013C029F010
:10295C0012C02AF08CD0000E4D24D96EDA6A070E04
:10296C00DA22DF50296E000E4E24D96EDA6A060E7A
:10297C00DA22DF502A6E7BD0000E4B24D96EDA6A35
:10298C00020EDA22DF50216E000E4C24D96EDA6A68
:10299C00030EDA22DF50226E29C027F0273A0F0EE1
:1029AC0027162A50F00B2710236E000E246E78D0B9
:1029BC00000E4C24D96EDA6A030EDA22DF50276E31
:1029CC00273A0F0E2716000E4B24D96EDA6A020E28
:1029DC00DA22DF50F00B2710216E2AC022F029C01A
:1029EC0023F0E3D7000E4C24D96EDA6A030EDA22F8
:1029FC00DF50276E273A0F0E2716000E4B24D96E88
:102A0C00DA6A020EDA22DF50F00B2710216E29C091
:102A1C0027F0273A0F0E27162A50F00B2710226E9C
:102A2C00000EC2D7000E4B24D96EDA6A020EDA22DF
:102A3C00DF50216E000E4C24D96EDA6A030EDA22B6
:102A4C00DF50226E2AC023F029C024F029D0000EBA
:102A5C004B24D96EDA6A020EDA22DF50216E000E98
:102A6C004C24D96EDA6A030EDA22DF50D8D72850FC
:102A7C00000AD8B481D7010AD8B49AD7030AD8B4BB
:102A8C00B1D7010AD8B4CED7070AD8B4E0D7010A17
:102A9C00D8B472D7030AD8B46FD7010AD8B46CD79C
:102AAC001D0E1200000E336E040E346EBAC035F0DB
:102ABC00BBC036F049C037F0C7C038F0C9C039F0D8
:102ACC000001000EC6B1010E3A6ECFEC13F0000EF1
:102ADC00336E050E346EBCC035F0BDC036F04AC046
:102AEC0037F0C7C038F0C9C039F00001000EC6B3CA
:102AFC00010E3A6ECFEC13F0000E336E020E346EF4
:102B0C00BEC035F0BFC036F04BC037F0C8C038F08F
:102B1C00C9C039F00001000EC6B5010E3A6ECFECFB
:102B2C0013F0000E336E030E346EC0C035F0C1C00E
:102B3C0036F04CC037F0C8C038F0C9C039F00001CD
:102B4C00000EC6B7010E3A6ECFEC13F0000E336ECA
:102B5C00060E346E410E356E730E366E4EC037F067
:102B6C00010E386E06EC17F0000E336E070E346E45
:102B7C00410E356E730E366E4DC037F0010E386E49
:102B8C0006EC17F01200000EAC6E010EAE6E040EC9
:102B9C00AD6E120EAF6E1F0EAB6E000EAA6E800ED7
:102BAC00AC6E0F0E6D6E000E6C6E800E6E6E000EA7
:102BBC003C01756F180E766F050E776F000E786FEF
:102BCC00000E796F080E7A6F020E7B6F000E7C6F11
:102BDC00000E7D6F840E746F000E6B6F2C0E6C6F7D
:102BEC00050E6D6F000E6E6F000E6F6F080E706F1E
:102BFC00010E716F000E726F000E736F840E6A6F90
:102C0C00000E616F240E626F180E636F2B0E646FD3
:102C1C002C0E656F020E666F040E676F900E686F58
:102C2C00600E696F820E606F040E576F260E586F20
:102C3C002C0E596F250E5A6F000E5B6F020E5C6FD7
:102C4C00000E5D6F140E5E6F000E5F6F830E566F7D
:102C5C00050E3D011C6F000E196F000E156F020E54
:102C6C00166F820E146F1200440EF66E340EF76E51
:102C7C00000EF86E00EE49F010EE0CF009006F003B
:102C8C00D7FFEEFFE550E150F9E101EE00F310EE55
:102C9C0000F1EE6AE550E150FCE1E250FAE101EEA0
:102CAC0000F210EE00F1EE6AE550E150FCE1E2506A
:102CBC00FAE101EE00F110EE00F1EE6AE550E150A0
:102CCC00FCE1E250FAE101EE00F010EE00F1EE6AE8
:102CDC00E550E150FCE1E250FAE100EE00F310EEB9
:102CEC0000F1EE6AE550E150FCE1E250FAE100EE51
:102CFC0000F210EE00F1EE6AE550E150FCE1E2501A
:102D0C00FAE100EE00F1240EEE6AE806FDE100EEB9
:102D1C00B4F03A0EEE6AE806FDE100EE01F0240E86
:102D2C00EE6AE806FDE10C0ED56E200ED66E000E96
:102D3C00D76E000EF86E000112EF10F03F011F9FCE
:102D4C003D0117ABFDD7C394000E1B6E000E1A6E1F
:102D5C00000E196E000E186E010EAA6E010E186F81
:102D6C001A9F6000B3F012FD2C04D8A408D02B508D
:102D7C00D96EDA6ADF50116F800E116F38D02B507C
:102D8C00D96EDA6ADF50116F2B50D96EDA6A010EE8
:102D9C00D926DF50116F2C50FE0F336E020E326E9F
:102DAC0024D033C02DF02E6A2DBE2E06020E2D26F9
:102DBC00000E2E2212512F6E306A2D502F5C305087
:102DCC00800A316E2E50800A3158D8B00ED0335054
:102DDC00D8A403D0800E116F07D02B503224D96E9B
:102DEC00DA6ADF50116F322A330633AEDAD71AAFF4
:102DFC00FED717ABFED71A9F3F011F8FC38412005B
:102E0C003550365C396E3A6AD8A03A06000E3C6EE4
:102E1C00000E3B6E37503B5C256E3C50D8A03C04FA
:102E2C00266E000E286E276854EC19F025C02BF086
:102E3C0026C02CF039C02DF03AC02EF0D8EC17F08B
:102E4C002BC03DF02CC03EF03850D8B404D03D6CB3
:102E5C003E1ED8B03E2A3EAE04D0000E3E6E000E92
:102E6C003D6E3EBE06D03E04D8A003D0000E3E6E92
:102E7C003D683B503324D96E3C503420DA6E6000F0
:102E8C00F7F0DFFF3B4A3C2A3CBEC4D73C04D8B029
:102E9C001200C0D7000E946E010E966E000E976E47
:102EAC00000E926E500E936E050E956E3901A9911F
:102EBC009981000EAC6E010EAE6E000EAF6E000E60
:102ECC00AA6E7D0EAB6EA495F00EAC6E04D0CBB496
:102EDC0002D0000EAA6EA4A5FAD7550E3F015F6F63
:102EEC00C9EC15F0800E946E3F011B691C691D69BD
:102EFC00000E126F000E136F000E146F880E1E6FF3
:102F0C00430E1F6F010E216F000E236F000E226FF8
:102F1C003901A19F818F918F3F011F8F1200B40E39
:102F2C00256E000E276E000E266E000E296E1C0EEE
:102F3C00286E69EC19F0470E0001B46F430EB56FA3
:102F4C002B0EB66F320EB76F000EB96F140EB86F32
:102F5C00000EBA6FBB69000EBC6FBD69000EBE6F70
:102F6C00BF69000EC06FC169020EC26F030EC36F42
:102F7C00000EC46F010EC56F000EC66F180EC76F22
:102F8C00180EC86F010EC96FCA69000ECB6FC689C7
:102F9C00C68B410ECC6F780ECD6F410ECE6F780E76
:102FAC00CF6F1200000E306E2EAE06D02D6C2E1E82
:102FBC00D8B02E2A010E306E2CAE06D02B6C2C1EE7
:102FCC00D8B02C2A010E301A000E326E000E316E63
:102FDC002D502E10D8B41CD0010E2F6E04D0D890CA
:102FEC002D362E362F2A2EAEFAD7D89031363236D1
:102FFC002D502B5C2E502C58D8A005D02D502B5E6C
:10300C002E502C5A3180D8902E322D322F2EEDD7B7
:10301C003050D8B404D0316C321ED8B0322A31C002
:10302C002BF032C02CF01200000EB86E470EB96EA9
:10303C007C0EB76E3901A39F800EB86EDF0E256E25
:10304C00000E276E000E266E000E296E0F0E286ED7
:10305C0069EC19F0D00E256E000E276E000E266E50
:10306C00000E296E0F0E286E69EC19F0010E00018E
:10307C00DF6F020EE06F040EE16F080EE26F100EB0
:10308C00E36F010ED56F020ED66F040ED76F080ECC
:10309C00D86F100ED96F200EDA6F400EDB6F120056
:1030AC00B40E2B6E000E2C6E04002B502C24D96EFB
:1030BC00DA6A2C50F5EC19F0DF6E030E2C18D8A43C
:1030CC0012D0470E0001B4190AE1430EB51907E1FD
:1030DC002B0EB61904E1320EB719D8B404D095EC06
:1030EC0017F0A2EC19F02C2A1B0E2C64DDD7000172
:1030FC00B95110E1140EB85DD8B01200000EB96FC2
:10310C00130EB86F000ECC6FCD69000ECE6FCF6969
:10311C00A2EC19F01200000ED2BE010E256ED29E4A
:10312C00550E3A01BF6FAA0EBF6FBF910A0ECC6F3E
:10313C000A0ED26F040E0A6F090E0B6F550EBF6F7D
:10314C00AA0EBF6FBF8125A002D0D28E01D0D29E15
:10315C00EF0EBB6EC268E70EC36EC4680F0E3A0169
:10316C00406F000E506F000E606FF00E416F270E17
:10317C00516F6169000E426F040E526F000E626F48
:10318C001200390191BFA1AF23D0A19FD89018365E
:10319C007F0E3F01186501D002D0010E01D0000E48
:1031AC001812000E196E000E926E1B2A080E1B18B8
:1031BC00D8A40ED0000E1A24D96EDA6A010EDA22C7
:1031CC00600063F0DFFF000E186E000E1B6E1A2AF3
:1031DC003901A9A111001A50D8B403D0010E196EEF
:1031EC0002D011EC1AF03901A9911100000ED26E27
:1031FC00010E3F01386F000EFC6E550ED46EAA0EF8
:10320C00D46E000ED46ED490080ED56E000ED66E11
:10321C00000ED76E550ED46EAA0ED46E010ED46E5F
:10322C00D480000EFB6E000EFA6E000EF96E1200CA
:10323C001950D8A402D0000E1200000E266E0ED02B
:10324C00000E2624D96EDA6A010EDA2225502624C5
:10325C00E16EE26A6F007FFFE7FF262A1A50265CB8
:10326C00D8A0EED71A501200000EA06E010EA26E5E
:10327C00000EA16E9F68000E9E6E800EA06E3F0128
:10328C005E51FC0B02095E6F000E7C6E800E7D6E33
:10329C009C0E7E6EBB98000E176E120025502702F6
:1032AC006F00CCFF29F06F00D0FF2AF025502802C8
:1032BC00F3502A2626502702F3502A2629C025F03F
:1032CC002AC026F0120025C02AF007D02A50D96E49
:1032DC00DA6A60009BF0DFFF2A2A2806D8A02906AC
:1032EC002828F4E12928D8B41200F0D7000E276E54
:1032FC002750D00FD96EDA6A27501D0FE16EE26AA3
:10330C006F007FFFE7FF272A0E0E2764F1D71D0EF3
:10331C001200000E276E2750DF0FD96EDA6A275085
:10332C001D0FE16EE26A6F007FFFE7FF272A0E0E8A
:10333C002764F1D71D0E1200B40E276E000E286EF6
:10334C0027502824D96EDA6ADF50256E2850B4EC49
:10335C0019F0282A1B0E2864F3D71200266E000ED3
:10336C003901E56F60009BF0E0F9600097F0E3F93C
:10337C00E585FFEC19F03901E5B3FDD7E5951200B1
:10338C00000E266E25502624D96EDA6A2650D00FF0
:10339C00E16EE26A6F007FFFE7FF262A0E0E2664BD
:1033AC00F1D71200000E266E25502624D96EDA6A4B
:1033BC002650DF0FE16EE26A6F007FFFE7FF262ADF
:1033CC000E0E2664F1D71200000E7D6E1750D8A495
:1033DC0002D0BB8801D0BB98010E176E1200256E6F
:1033EC00000E3901E56F600097F0E0F9E581E351DB
:1033FC001200D29E550E3901E66FAA0EE66FE583D8
:10340C00D28E1200000E1B6E000E1A6E000E196E7C
:10341C00000E186E1200000E1B6E000E1A6E000EBF
:10342C00196E000E186E1200256E000E176E6000DD
:10343C0097F07DFFBB881200808080800000020323
:10344C0000011314000E176E000E7D6EBB98120057
:020000040020DA
:10000000FFFFFFFFFFFFFFFFFFFFFFFFFFFFFFFF00
:020000040030CA
:0A0000008CFDE7F4ECC7E4FEFFFFFF
:00000001FF
